{
  "contractName": "MOSGOVCOVIDQR",
  "abi": [
    {
      "inputs": [],
      "payable": false,
      "stateMutability": "nonpayable",
      "type": "constructor"
    },
    {
      "constant": true,
      "inputs": [
        {
          "internalType": "address",
          "name": "",
          "type": "address"
        }
      ],
      "name": "HospitalRegistry",
      "outputs": [
        {
          "internalType": "uint256",
          "name": "registrationCertificate",
          "type": "uint256"
        },
        {
          "internalType": "string",
          "name": "name",
          "type": "string"
        },
        {
          "internalType": "address",
          "name": "hospitalAddress",
          "type": "address"
        },
        {
          "internalType": "string",
          "name": "vaccineName",
          "type": "string"
        },
        {
          "internalType": "bool",
          "name": "registeredVacciner",
          "type": "bool"
        },
        {
          "internalType": "uint256",
          "name": "_numberOfVaccinesRollOut",
          "type": "uint256"
        }
      ],
      "payable": false,
      "stateMutability": "view",
      "type": "function"
    },
    {
      "constant": true,
      "inputs": [
        {
          "internalType": "uint256",
          "name": "",
          "type": "uint256"
        }
      ],
      "name": "PublicBook",
      "outputs": [
        {
          "internalType": "uint256",
          "name": "vaccineCardSerialNumber",
          "type": "uint256"
        },
        {
          "internalType": "string",
          "name": "patientName",
          "type": "string"
        },
        {
          "internalType": "uint256",
          "name": "dateOfVaccination",
          "type": "uint256"
        },
        {
          "internalType": "uint256",
          "name": "registrationCertificate",
          "type": "uint256"
        },
        {
          "internalType": "string",
          "name": "name",
          "type": "string"
        },
        {
          "internalType": "address",
          "name": "hospitalAddress",
          "type": "address"
        },
        {
          "internalType": "string",
          "name": "vaccineName",
          "type": "string"
        }
      ],
      "payable": false,
      "stateMutability": "view",
      "type": "function"
    },
    {
      "constant": true,
      "inputs": [],
      "name": "healthMinistry",
      "outputs": [
        {
          "internalType": "address",
          "name": "",
          "type": "address"
        }
      ],
      "payable": false,
      "stateMutability": "view",
      "type": "function"
    },
    {
      "constant": true,
      "inputs": [],
      "name": "hospitalId",
      "outputs": [
        {
          "internalType": "uint256",
          "name": "",
          "type": "uint256"
        }
      ],
      "payable": false,
      "stateMutability": "view",
      "type": "function"
    },
    {
      "constant": true,
      "inputs": [],
      "name": "vaccineCard",
      "outputs": [
        {
          "internalType": "uint256",
          "name": "",
          "type": "uint256"
        }
      ],
      "payable": false,
      "stateMutability": "view",
      "type": "function"
    },
    {
      "constant": false,
      "inputs": [
        {
          "internalType": "string",
          "name": "_hospitalName",
          "type": "string"
        },
        {
          "internalType": "address",
          "name": "_hospitalAddress",
          "type": "address"
        },
        {
          "internalType": "string",
          "name": "_vaccineName",
          "type": "string"
        },
        {
          "internalType": "bool",
          "name": "_isVacciner",
          "type": "bool"
        }
      ],
      "name": "registerHospital",
      "outputs": [],
      "payable": false,
      "stateMutability": "nonpayable",
      "type": "function"
    },
    {
      "constant": false,
      "inputs": [
        {
          "internalType": "string",
          "name": "_name",
          "type": "string"
        }
      ],
      "name": "VaccinatePeople",
      "outputs": [],
      "payable": false,
      "stateMutability": "nonpayable",
      "type": "function"
    }
  ],
  "bytecode": "0x608060405234801561001057600080fd5b50336000806101000a81548173ffffffffffffffffffffffffffffffffffffffff021916908373ffffffffffffffffffffffffffffffffffffffff1602179055506001808190555060016002819055506114b78061006f6000396000f3fe608060405234801561001057600080fd5b506004361061007d5760003560e01c80639d2d428e1161005b5780639d2d428e146103dc578063b7c55fe9146103fa578063e747f70014610444578063eb63f4ed146104ff5761007d565b806311c7fa62146100825780631c838eda146101f75780635f9be464146103be575b600080fd5b6100c46004803603602081101561009857600080fd5b81019080803573ffffffffffffffffffffffffffffffffffffffff16906020019092919050505061067d565b60405180878152602001806020018673ffffffffffffffffffffffffffffffffffffffff1673ffffffffffffffffffffffffffffffffffffffff1681526020018060200185151515158152602001848152602001838103835288818151815260200191508051906020019080838360005b83811015610150578082015181840152602081019050610135565b50505050905090810190601f16801561017d5780820380516001836020036101000a031916815260200191505b50838103825286818151815260200191508051906020019080838360005b838110156101b657808201518184015260208101905061019b565b50505050905090810190601f1680156101e35780820380516001836020036101000a031916815260200191505b509850505050505050505060405180910390f35b6102236004803603602081101561020d57600080fd5b8101908080359060200190929190505050610816565b6040518088815260200180602001878152602001868152602001806020018573ffffffffffffffffffffffffffffffffffffffff1673ffffffffffffffffffffffffffffffffffffffff1681526020018060200184810384528a818151815260200191508051906020019080838360005b838110156102af578082015181840152602081019050610294565b50505050905090810190601f1680156102dc5780820380516001836020036101000a031916815260200191505b50848103835287818151815260200191508051906020019080838360005b838110156103155780820151818401526020810190506102fa565b50505050905090810190601f1680156103425780820380516001836020036101000a031916815260200191505b50848103825285818151815260200191508051906020019080838360005b8381101561037b578082015181840152602081019050610360565b50505050905090810190601f1680156103a85780820380516001836020036101000a031916815260200191505b509a505050505050505050505060405180910390f35b6103c6610a40565b6040518082815260200191505060405180910390f35b6103e4610a46565b6040518082815260200191505060405180910390f35b610402610a4c565b604051808273ffffffffffffffffffffffffffffffffffffffff1673ffffffffffffffffffffffffffffffffffffffff16815260200191505060405180910390f35b6104fd6004803603602081101561045a57600080fd5b810190808035906020019064010000000081111561047757600080fd5b82018360208201111561048957600080fd5b803590602001918460018302840111640100000000831117156104ab57600080fd5b91908080601f016020809104026020016040519081016040528093929190818152602001838380828437600081840152601f19601f820116905080830192505050505050509192919290505050610a71565b005b61067b6004803603608081101561051557600080fd5b810190808035906020019064010000000081111561053257600080fd5b82018360208201111561054457600080fd5b8035906020019184600183028401116401000000008311171561056657600080fd5b91908080601f016020809104026020016040519081016040528093929190818152602001838380828437600081840152601f19601f820116905080830192505050505050509192919290803573ffffffffffffffffffffffffffffffffffffffff169060200190929190803590602001906401000000008111156105e957600080fd5b8201836020820111156105fb57600080fd5b8035906020019184600183028401116401000000008311171561061d57600080fd5b91908080601f016020809104026020016040519081016040528093929190818152602001838380828437600081840152601f19601f820116905080830192505050505050509192919290803515159060200190929190505050610f30565b005b6003602052806000526040600020600091509050806000015490806001018054600181600116156101000203166002900480601f01602080910402602001604051908101604052809291908181526020018280546001816001161561010002031660029004801561072f5780601f106107045761010080835404028352916020019161072f565b820191906000526020600020905b81548152906001019060200180831161071257829003601f168201915b5050505050908060020160009054906101000a900473ffffffffffffffffffffffffffffffffffffffff1690806003018054600181600116156101000203166002900480601f0160208091040260200160405190810160405280929190818152602001828054600181600116156101000203166002900480156107f35780601f106107c8576101008083540402835291602001916107f3565b820191906000526020600020905b8154815290600101906020018083116107d657829003601f168201915b5050505050908060040160009054906101000a900460ff16908060050154905086565b6004602052806000526040600020600091509050806000015490806001018054600181600116156101000203166002900480601f0160208091040260200160405190810160405280929190818152602001828054600181600116156101000203166002900480156108c85780601f1061089d576101008083540402835291602001916108c8565b820191906000526020600020905b8154815290600101906020018083116108ab57829003601f168201915b505050505090806002015490806003015490806004018054600181600116156101000203166002900480601f0160208091040260200160405190810160405280929190818152602001828054600181600116156101000203166002900480156109725780601f1061094757610100808354040283529160200191610972565b820191906000526020600020905b81548152906001019060200180831161095557829003601f168201915b5050505050908060050160009054906101000a900473ffffffffffffffffffffffffffffffffffffffff1690806006018054600181600116156101000203166002900480601f016020809104026020016040519081016040528092919081815260200182805460018160011615610100020316600290048015610a365780601f10610a0b57610100808354040283529160200191610a36565b820191906000526020600020905b815481529060010190602001808311610a1957829003601f168201915b5050505050905087565b60025481565b60015481565b6000809054906101000a900473ffffffffffffffffffffffffffffffffffffffff1681565b60011515600360003373ffffffffffffffffffffffffffffffffffffffff1673ffffffffffffffffffffffffffffffffffffffff16815260200190815260200160002060040160009054906101000a900460ff16151514610b3a576040517f08c379a000000000000000000000000000000000000000000000000000000000815260040180806020018281038252601a8152602001807f4f6e6c79205265676973746572656420686f73706974616c732100000000000081525060200191505060405180910390fd5b6000600360003373ffffffffffffffffffffffffffffffffffffffff1673ffffffffffffffffffffffffffffffffffffffff1681526020019081526020016000206000015490506060600360003373ffffffffffffffffffffffffffffffffffffffff1673ffffffffffffffffffffffffffffffffffffffff1681526020019081526020016000206001018054600181600116156101000203166002900480601f016020809104026020016040519081016040528092919081815260200182805460018160011615610100020316600290048015610c595780601f10610c2e57610100808354040283529160200191610c59565b820191906000526020600020905b815481529060010190602001808311610c3c57829003601f168201915b505050505090506000600360003373ffffffffffffffffffffffffffffffffffffffff1673ffffffffffffffffffffffffffffffffffffffff16815260200190815260200160002060020160009054906101000a900473ffffffffffffffffffffffffffffffffffffffff1690506060600360003373ffffffffffffffffffffffffffffffffffffffff1673ffffffffffffffffffffffffffffffffffffffff1681526020019081526020016000206003018054600181600116156101000203166002900480601f016020809104026020016040519081016040528092919081815260200182805460018160011615610100020316600290048015610d9f5780601f10610d7457610100808354040283529160200191610d9f565b820191906000526020600020905b815481529060010190602001808311610d8257829003601f168201915b505050505090506040518060e0016040528060025481526020018681526020014281526020018581526020018481526020018373ffffffffffffffffffffffffffffffffffffffff16815260200182815250600460006002548152602001908152602001600020600082015181600001556020820151816001019080519060200190610e2c92919061135d565b5060408201518160020155606082015181600301556080820151816004019080519060200190610e5d92919061135d565b5060a08201518160050160006101000a81548173ffffffffffffffffffffffffffffffffffffffff021916908373ffffffffffffffffffffffffffffffffffffffff16021790555060c0820151816006019080519060200190610ec192919061135d565b50905050600360003373ffffffffffffffffffffffffffffffffffffffff1673ffffffffffffffffffffffffffffffffffffffff168152602001908152602001600020600501600081548092919060010191905055506002600081548092919060010191905055505050505050565b3373ffffffffffffffffffffffffffffffffffffffff166000809054906101000a900473ffffffffffffffffffffffffffffffffffffffff1673ffffffffffffffffffffffffffffffffffffffff1614610ff2576040517f08c379a000000000000000000000000000000000000000000000000000000000815260040180806020018281038252600f8152602001807f496e76616c69642041636365737321000000000000000000000000000000000081525060200191505060405180910390fd5b6000600360008573ffffffffffffffffffffffffffffffffffffffff1673ffffffffffffffffffffffffffffffffffffffff16815260200190815260200160002060000154146110aa576040517f08c379a00000000000000000000000000000000000000000000000000000000081526004018080602001828103825260118152602001807f486f73706974616c20496420627573792100000000000000000000000000000081525060200191505060405180910390fd5b60001515600360008573ffffffffffffffffffffffffffffffffffffffff1673ffffffffffffffffffffffffffffffffffffffff16815260200190815260200160002060040160009054906101000a900460ff16151514611173576040517f08c379a000000000000000000000000000000000000000000000000000000000815260040180806020018281038252601c8152602001807f486f73706974616c20416c72656164792052656769737465726564210000000081525060200191505060405180910390fd5b600154600360008573ffffffffffffffffffffffffffffffffffffffff1673ffffffffffffffffffffffffffffffffffffffff1681526020019081526020016000206000018190555083600360008573ffffffffffffffffffffffffffffffffffffffff1673ffffffffffffffffffffffffffffffffffffffff16815260200190815260200160002060010190805190602001906112129291906113dd565b5082600360008573ffffffffffffffffffffffffffffffffffffffff1673ffffffffffffffffffffffffffffffffffffffff16815260200190815260200160002060020160006101000a81548173ffffffffffffffffffffffffffffffffffffffff021916908373ffffffffffffffffffffffffffffffffffffffff16021790555081600360008573ffffffffffffffffffffffffffffffffffffffff1673ffffffffffffffffffffffffffffffffffffffff16815260200190815260200160002060030190805190602001906112ea9291906113dd565b5080600360008573ffffffffffffffffffffffffffffffffffffffff1673ffffffffffffffffffffffffffffffffffffffff16815260200190815260200160002060040160006101000a81548160ff02191690831515021790555060016000815480929190600101919050555050505050565b828054600181600116156101000203166002900490600052602060002090601f016020900481019282601f1061139e57805160ff19168380011785556113cc565b828001600101855582156113cc579182015b828111156113cb5782518255916020019190600101906113b0565b5b5090506113d9919061145d565b5090565b828054600181600116156101000203166002900490600052602060002090601f016020900481019282601f1061141e57805160ff191683800117855561144c565b8280016001018555821561144c579182015b8281111561144b578251825591602001919060010190611430565b5b509050611459919061145d565b5090565b61147f91905b8082111561147b576000816000905550600101611463565b5090565b9056fea265627a7a723158208f717b962d0fbe250139f4550cd622d62f7e0a52e403db7458b6aa5f4ed9952a64736f6c63430005100032",
  "source": "pragma solidity <0.6.5;\n\ncontract MOSGOVCOVIDQR{\n\n    address public healthMinistry;\n\n    uint public hospitalId;\n    uint public vaccineCard;\n\n    constructor() public {\n        healthMinistry = msg.sender;\n        hospitalId = 1;\n        vaccineCard = 1;\n    }\n\n    mapping (address => HospitalClinic) public HospitalRegistry;\n    struct HospitalClinic{\n        uint registrationCertificate;\n        string name;\n\n        address hospitalAddress;\n\n        string vaccineName;\n        bool registeredVacciner;\n\n        uint _numberOfVaccinesRollOut;\n    }\n\n\n    mapping (uint => PublicRegistryOR) public PublicBook;\n    struct PublicRegistryOR{\n\n        // QR information\n        uint vaccineCardSerialNumber;\n        string patientName;\n        uint dateOfVaccination; // from Blockchain\n\n        // Hospital information\n        uint registrationCertificate;\n        string name;\n        address hospitalAddress;\n        string vaccineName;\n\n    }\n\n\n    function registerHospital(string memory _hospitalName, address _hospitalAddress, string memory _vaccineName, bool _isVacciner) public onlyOwner{\n\n        require(HospitalRegistry[_hospitalAddress].registrationCertificate == 0, 'Hospital Id busy!');\n        require(HospitalRegistry[_hospitalAddress].registeredVacciner == false,\"Hospital Already Registered!\");\n\n        // inputing Hospital details:\n        // HospitalRegistry[_hospitalAddress]. = HospitalClinic(hospitalId,_hospitalName,_hospitalAddress,'SputniV',true,0);\n        HospitalRegistry[_hospitalAddress].registrationCertificate = hospitalId;\n        HospitalRegistry[_hospitalAddress].name = _hospitalName;\n        HospitalRegistry[_hospitalAddress].hospitalAddress = _hospitalAddress;\n        HospitalRegistry[_hospitalAddress].vaccineName = _vaccineName;\n        HospitalRegistry[_hospitalAddress].registeredVacciner = _isVacciner;\n        hospitalId++;\n    }\n\n    function VaccinatePeople(string memory _name) public onlyRegisteredHospital{\n        // attaining hospital's information\n        uint _registrationCertificate = HospitalRegistry[msg.sender].registrationCertificate;\n        string memory _hospitalName = HospitalRegistry[msg.sender].name;\n        address _hopitalAddress = HospitalRegistry[msg.sender].hospitalAddress;\n        string memory _vaccineName = HospitalRegistry[msg.sender].vaccineName;\n\n        PublicBook[vaccineCard] = PublicRegistryOR(vaccineCard,_name,now,_registrationCertificate,_hospitalName,_hopitalAddress,_vaccineName);\n\n        // increment Vaccine RollOuts\n        HospitalRegistry[msg.sender]._numberOfVaccinesRollOut++;\n        vaccineCard ++;\n    }\n\n    modifier onlyOwner(){\n        require(healthMinistry == msg.sender,'Invalid Access!');\n        _;\n    }\n\n    modifier onlyRegisteredHospital(){\n        require(HospitalRegistry[msg.sender].registeredVacciner == true, 'Only Registered hospitals!');\n        _;\n    }\n\n}\n",
  "sourcePath": "/Users/yashmadhwal/Documents/Yash Madhwal/Ongoing (Reseach)/QR_Code_Project/contracts/MOSGOVCOVIDQR.sol",
  "compiler": {
    "name": "solc",
    "version": "0.5.16+commit.9c3226ce.Emscripten.clang"
  },
  "schemaVersion": "3.3.4",
  "updatedAt": "2021-08-02T10:47:28.944Z",
  "networkType": "ethereum",
  "devdoc": {
    "methods": {}
  },
  "userdoc": {
    "methods": {}
  }
}