{
  "contractName": "MOSGOVCOVIDQR",
  "abi": [
    {
      "inputs": [],
      "stateMutability": "nonpayable",
      "type": "constructor"
    },
    {
      "inputs": [
        {
          "internalType": "address",
          "name": "",
          "type": "address"
        }
      ],
      "name": "HospitalRegistry",
      "outputs": [
        {
          "internalType": "uint256",
          "name": "registrationCertificate",
          "type": "uint256"
        },
        {
          "internalType": "string",
          "name": "name",
          "type": "string"
        },
        {
          "internalType": "address",
          "name": "hospitalAddress",
          "type": "address"
        },
        {
          "internalType": "string",
          "name": "vaccineName",
          "type": "string"
        },
        {
          "internalType": "bool",
          "name": "registeredVacciner",
          "type": "bool"
        },
        {
          "internalType": "uint256",
          "name": "_numberOfVaccinesRollOut",
          "type": "uint256"
        }
      ],
      "stateMutability": "view",
      "type": "function",
      "constant": true
    },
    {
      "inputs": [
        {
          "internalType": "uint256",
          "name": "",
          "type": "uint256"
        }
      ],
      "name": "PublicBook",
      "outputs": [
        {
          "internalType": "uint256",
          "name": "vaccineCardSerialNumber",
          "type": "uint256"
        },
        {
          "internalType": "string",
          "name": "patientName",
          "type": "string"
        },
        {
          "internalType": "uint256",
          "name": "dateOfVaccination",
          "type": "uint256"
        },
        {
          "internalType": "uint256",
          "name": "registrationCertificate",
          "type": "uint256"
        },
        {
          "internalType": "string",
          "name": "name",
          "type": "string"
        },
        {
          "internalType": "address",
          "name": "hospitalAddress",
          "type": "address"
        },
        {
          "internalType": "string",
          "name": "vaccineName",
          "type": "string"
        }
      ],
      "stateMutability": "view",
      "type": "function",
      "constant": true
    },
    {
      "inputs": [],
      "name": "healthMinistry",
      "outputs": [
        {
          "internalType": "address",
          "name": "",
          "type": "address"
        }
      ],
      "stateMutability": "view",
      "type": "function",
      "constant": true
    },
    {
      "inputs": [],
      "name": "hospitalId",
      "outputs": [
        {
          "internalType": "uint256",
          "name": "",
          "type": "uint256"
        }
      ],
      "stateMutability": "view",
      "type": "function",
      "constant": true
    },
    {
      "inputs": [],
      "name": "vaccineCard",
      "outputs": [
        {
          "internalType": "uint256",
          "name": "",
          "type": "uint256"
        }
      ],
      "stateMutability": "view",
      "type": "function",
      "constant": true
    },
    {
      "inputs": [
        {
          "internalType": "string",
          "name": "_hospitalName",
          "type": "string"
        },
        {
          "internalType": "address",
          "name": "_hospitalAddress",
          "type": "address"
        },
        {
          "internalType": "string",
          "name": "_vaccineName",
          "type": "string"
        },
        {
          "internalType": "bool",
          "name": "_isVacciner",
          "type": "bool"
        }
      ],
      "name": "registerHospital",
      "outputs": [],
      "stateMutability": "nonpayable",
      "type": "function"
    },
    {
      "inputs": [
        {
          "internalType": "string",
          "name": "_name",
          "type": "string"
        }
      ],
      "name": "VaccinatePeople",
      "outputs": [],
      "stateMutability": "nonpayable",
      "type": "function"
    }
  ],
  "bytecode": "0x608060405234801561001057600080fd5b50336000806101000a81548173ffffffffffffffffffffffffffffffffffffffff021916908373ffffffffffffffffffffffffffffffffffffffff1602179055506001808190555060016002819055506115db8061006f6000396000f3fe608060405234801561001057600080fd5b506004361061007d5760003560e01c80639d2d428e1161005b5780639d2d428e1461010b578063b7c55fe914610129578063e747f70014610147578063eb63f4ed146101635761007d565b806311c7fa62146100825780631c838eda146100b75780635f9be464146100ed575b600080fd5b61009c60048036038101906100979190610e85565b61017f565b6040516100ae9695949392919061116f565b60405180910390f35b6100d160048036038101906100cc9190610f9a565b6102f8565b6040516100e497969594939291906111de565b60405180910390f35b6100f56104f2565b6040516101029190611154565b60405180910390f35b6101136104f8565b6040516101209190611154565b60405180910390f35b6101316104fe565b60405161013e91906110b9565b60405180910390f35b610161600480360381019061015c9190610eb2565b610522565b005b61017d60048036038101906101789190610efb565b61099a565b005b60036020528060005260406000206000915090508060000154908060010180546101a89061135e565b80601f01602080910402602001604051908101604052809291908181526020018280546101d49061135e565b80156102215780601f106101f657610100808354040283529160200191610221565b820191906000526020600020905b81548152906001019060200180831161020457829003601f168201915b5050505050908060020160009054906101000a900473ffffffffffffffffffffffffffffffffffffffff169080600301805461025c9061135e565b80601f01602080910402602001604051908101604052809291908181526020018280546102889061135e565b80156102d55780601f106102aa576101008083540402835291602001916102d5565b820191906000526020600020905b8154815290600101906020018083116102b857829003601f168201915b5050505050908060040160009054906101000a900460ff16908060050154905086565b60046020528060005260406000206000915090508060000154908060010180546103219061135e565b80601f016020809104026020016040519081016040528092919081815260200182805461034d9061135e565b801561039a5780601f1061036f5761010080835404028352916020019161039a565b820191906000526020600020905b81548152906001019060200180831161037d57829003601f168201915b5050505050908060020154908060030154908060040180546103bb9061135e565b80601f01602080910402602001604051908101604052809291908181526020018280546103e79061135e565b80156104345780601f1061040957610100808354040283529160200191610434565b820191906000526020600020905b81548152906001019060200180831161041757829003601f168201915b5050505050908060050160009054906101000a900473ffffffffffffffffffffffffffffffffffffffff169080600601805461046f9061135e565b80601f016020809104026020016040519081016040528092919081815260200182805461049b9061135e565b80156104e85780601f106104bd576101008083540402835291602001916104e8565b820191906000526020600020905b8154815290600101906020018083116104cb57829003601f168201915b5050505050905087565b60025481565b60015481565b60008054906101000a900473ffffffffffffffffffffffffffffffffffffffff1681565b60011515600360003373ffffffffffffffffffffffffffffffffffffffff1673ffffffffffffffffffffffffffffffffffffffff16815260200190815260200160002060040160009054906101000a900460ff161515146105b8576040517f08c379a00000000000000000000000000000000000000000000000000000000081526004016105af906110f4565b60405180910390fd5b6000600360003373ffffffffffffffffffffffffffffffffffffffff1673ffffffffffffffffffffffffffffffffffffffff1681526020019081526020016000206000015490506000600360003373ffffffffffffffffffffffffffffffffffffffff1673ffffffffffffffffffffffffffffffffffffffff168152602001908152602001600020600101805461064e9061135e565b80601f016020809104026020016040519081016040528092919081815260200182805461067a9061135e565b80156106c75780601f1061069c576101008083540402835291602001916106c7565b820191906000526020600020905b8154815290600101906020018083116106aa57829003601f168201915b505050505090506000600360003373ffffffffffffffffffffffffffffffffffffffff1673ffffffffffffffffffffffffffffffffffffffff16815260200190815260200160002060020160009054906101000a900473ffffffffffffffffffffffffffffffffffffffff1690506000600360003373ffffffffffffffffffffffffffffffffffffffff1673ffffffffffffffffffffffffffffffffffffffff16815260200190815260200160002060030180546107849061135e565b80601f01602080910402602001604051908101604052809291908181526020018280546107b09061135e565b80156107fd5780601f106107d2576101008083540402835291602001916107fd565b820191906000526020600020905b8154815290600101906020018083116107e057829003601f168201915b505050505090506040518060e0016040528060025481526020018681526020014281526020018581526020018481526020018373ffffffffffffffffffffffffffffffffffffffff1681526020018281525060046000600254815260200190815260200160002060008201518160000155602082015181600101908051906020019061088a929190610d33565b50604082015181600201556060820151816003015560808201518160040190805190602001906108bb929190610d33565b5060a08201518160050160006101000a81548173ffffffffffffffffffffffffffffffffffffffff021916908373ffffffffffffffffffffffffffffffffffffffff16021790555060c082015181600601908051906020019061091f929190610d33565b50905050600360003373ffffffffffffffffffffffffffffffffffffffff1673ffffffffffffffffffffffffffffffffffffffff1681526020019081526020016000206005016000815480929190610976906113c1565b91905055506002600081548092919061098e906113c1565b91905055505050505050565b3373ffffffffffffffffffffffffffffffffffffffff1660008054906101000a900473ffffffffffffffffffffffffffffffffffffffff1673ffffffffffffffffffffffffffffffffffffffff1614610a28576040517f08c379a0000000000000000000000000000000000000000000000000000000008152600401610a1f906110d4565b60405180910390fd5b6000600360008573ffffffffffffffffffffffffffffffffffffffff1673ffffffffffffffffffffffffffffffffffffffff1681526020019081526020016000206000015414610aad576040517f08c379a0000000000000000000000000000000000000000000000000000000008152600401610aa490611134565b60405180910390fd5b60001515600360008573ffffffffffffffffffffffffffffffffffffffff1673ffffffffffffffffffffffffffffffffffffffff16815260200190815260200160002060040160009054906101000a900460ff16151514610b43576040517f08c379a0000000000000000000000000000000000000000000000000000000008152600401610b3a90611114565b60405180910390fd5b600154600360008573ffffffffffffffffffffffffffffffffffffffff1673ffffffffffffffffffffffffffffffffffffffff1681526020019081526020016000206000018190555083600360008573ffffffffffffffffffffffffffffffffffffffff1673ffffffffffffffffffffffffffffffffffffffff1681526020019081526020016000206001019080519060200190610be2929190610d33565b5082600360008573ffffffffffffffffffffffffffffffffffffffff1673ffffffffffffffffffffffffffffffffffffffff16815260200190815260200160002060020160006101000a81548173ffffffffffffffffffffffffffffffffffffffff021916908373ffffffffffffffffffffffffffffffffffffffff16021790555081600360008573ffffffffffffffffffffffffffffffffffffffff1673ffffffffffffffffffffffffffffffffffffffff1681526020019081526020016000206003019080519060200190610cba929190610d33565b5080600360008573ffffffffffffffffffffffffffffffffffffffff1673ffffffffffffffffffffffffffffffffffffffff16815260200190815260200160002060040160006101000a81548160ff02191690831515021790555060016000815480929190610d28906113c1565b919050555050505050565b828054610d3f9061135e565b90600052602060002090601f016020900481019282610d615760008555610da8565b82601f10610d7a57805160ff1916838001178555610da8565b82800160010185558215610da8579182015b82811115610da7578251825591602001919060010190610d8c565b5b509050610db59190610db9565b5090565b5b80821115610dd2576000816000905550600101610dba565b5090565b6000610de9610de484611287565b611262565b905082815260208101848484011115610e0557610e0461149c565b5b610e1084828561131c565b509392505050565b600081359050610e2781611560565b92915050565b600081359050610e3c81611577565b92915050565b600082601f830112610e5757610e56611497565b5b8135610e67848260208601610dd6565b91505092915050565b600081359050610e7f8161158e565b92915050565b600060208284031215610e9b57610e9a6114a6565b5b6000610ea984828501610e18565b91505092915050565b600060208284031215610ec857610ec76114a6565b5b600082013567ffffffffffffffff811115610ee657610ee56114a1565b5b610ef284828501610e42565b91505092915050565b60008060008060808587031215610f1557610f146114a6565b5b600085013567ffffffffffffffff811115610f3357610f326114a1565b5b610f3f87828801610e42565b9450506020610f5087828801610e18565b935050604085013567ffffffffffffffff811115610f7157610f706114a1565b5b610f7d87828801610e42565b9250506060610f8e87828801610e2d565b91505092959194509250565b600060208284031215610fb057610faf6114a6565b5b6000610fbe84828501610e70565b91505092915050565b610fd0816112d4565b82525050565b610fdf816112e6565b82525050565b6000610ff0826112b8565b610ffa81856112c3565b935061100a81856020860161132b565b611013816114ab565b840191505092915050565b600061102b600f836112c3565b9150611036826114bc565b602082019050919050565b600061104e601a836112c3565b9150611059826114e5565b602082019050919050565b6000611071601c836112c3565b915061107c8261150e565b602082019050919050565b60006110946011836112c3565b915061109f82611537565b602082019050919050565b6110b381611312565b82525050565b60006020820190506110ce6000830184610fc7565b92915050565b600060208201905081810360008301526110ed8161101e565b9050919050565b6000602082019050818103600083015261110d81611041565b9050919050565b6000602082019050818103600083015261112d81611064565b9050919050565b6000602082019050818103600083015261114d81611087565b9050919050565b600060208201905061116960008301846110aa565b92915050565b600060c08201905061118460008301896110aa565b81810360208301526111968188610fe5565b90506111a56040830187610fc7565b81810360608301526111b78186610fe5565b90506111c66080830185610fd6565b6111d360a08301846110aa565b979650505050505050565b600060e0820190506111f3600083018a6110aa565b81810360208301526112058189610fe5565b905061121460408301886110aa565b61122160608301876110aa565b81810360808301526112338186610fe5565b905061124260a0830185610fc7565b81810360c08301526112548184610fe5565b905098975050505050505050565b600061126c61127d565b90506112788282611390565b919050565b6000604051905090565b600067ffffffffffffffff8211156112a2576112a1611468565b5b6112ab826114ab565b9050602081019050919050565b600081519050919050565b600082825260208201905092915050565b60006112df826112f2565b9050919050565b60008115159050919050565b600073ffffffffffffffffffffffffffffffffffffffff82169050919050565b6000819050919050565b82818337600083830152505050565b60005b8381101561134957808201518184015260208101905061132e565b83811115611358576000848401525b50505050565b6000600282049050600182168061137657607f821691505b6020821081141561138a57611389611439565b5b50919050565b611399826114ab565b810181811067ffffffffffffffff821117156113b8576113b7611468565b5b80604052505050565b60006113cc82611312565b91507fffffffffffffffffffffffffffffffffffffffffffffffffffffffffffffffff8214156113ff576113fe61140a565b5b600182019050919050565b7f4e487b7100000000000000000000000000000000000000000000000000000000600052601160045260246000fd5b7f4e487b7100000000000000000000000000000000000000000000000000000000600052602260045260246000fd5b7f4e487b7100000000000000000000000000000000000000000000000000000000600052604160045260246000fd5b600080fd5b600080fd5b600080fd5b600080fd5b6000601f19601f8301169050919050565b7f496e76616c696420416363657373210000000000000000000000000000000000600082015250565b7f4f6e6c79205265676973746572656420686f73706974616c7321000000000000600082015250565b7f486f73706974616c20416c726561647920526567697374657265642100000000600082015250565b7f486f73706974616c204964206275737921000000000000000000000000000000600082015250565b611569816112d4565b811461157457600080fd5b50565b611580816112e6565b811461158b57600080fd5b50565b61159781611312565b81146115a257600080fd5b5056fea2646970667358221220ff0e25367c2883717f77236f20d09a4912ff62b17054480f477f656094b0092b64736f6c63430008060033",
  "immutableReferences": {},
  "source": "// SPDX-License-Identifier: MIT\npragma solidity ^0.8.0;\n\ncontract MOSGOVCOVIDQR{\n\n    address public healthMinistry;\n\n    uint public hospitalId;\n    uint public vaccineCard;\n\n    constructor() {\n        healthMinistry = msg.sender;\n        hospitalId = 1;\n        vaccineCard = 1;\n    }\n\n    mapping (address => HospitalClinic) public HospitalRegistry;\n    struct HospitalClinic{\n        uint registrationCertificate;\n        string name;\n\n        address hospitalAddress;\n\n        string vaccineName;\n        bool registeredVacciner;\n\n        uint _numberOfVaccinesRollOut;\n    }\n\n\n    mapping (uint => PublicRegistryOR) public PublicBook;\n    struct PublicRegistryOR{\n\n        // QR information\n        uint vaccineCardSerialNumber;\n        string patientName;\n        uint dateOfVaccination; // from Blockchain\n\n        // Hospital information\n        uint registrationCertificate;\n        string name;\n        address hospitalAddress;\n        string vaccineName;\n\n    }\n\n\n    function registerHospital(string memory _hospitalName, address _hospitalAddress, string memory _vaccineName, bool _isVacciner) public onlyOwner{\n\n        require(HospitalRegistry[_hospitalAddress].registrationCertificate == 0, 'Hospital Id busy!');\n        require(HospitalRegistry[_hospitalAddress].registeredVacciner == false,\"Hospital Already Registered!\");\n\n        // inputing Hospital details:\n        // HospitalRegistry[_hospitalAddress]. = HospitalClinic(hospitalId,_hospitalName,_hospitalAddress,'SputniV',true,0);\n        HospitalRegistry[_hospitalAddress].registrationCertificate = hospitalId;\n        HospitalRegistry[_hospitalAddress].name = _hospitalName;\n        HospitalRegistry[_hospitalAddress].hospitalAddress = _hospitalAddress;\n        HospitalRegistry[_hospitalAddress].vaccineName = _vaccineName;\n        HospitalRegistry[_hospitalAddress].registeredVacciner = _isVacciner;\n        hospitalId++;\n    }\n\n    function VaccinatePeople(string memory _name) public onlyRegisteredHospital{\n        // attaining hospital's information\n        uint _registrationCertificate = HospitalRegistry[msg.sender].registrationCertificate;\n        string memory _hospitalName = HospitalRegistry[msg.sender].name;\n        address _hopitalAddress = HospitalRegistry[msg.sender].hospitalAddress;\n        string memory _vaccineName = HospitalRegistry[msg.sender].vaccineName;\n\n        PublicBook[vaccineCard] = PublicRegistryOR(vaccineCard,_name,block.timestamp,_registrationCertificate,_hospitalName,_hopitalAddress,_vaccineName);\n\n        // increment Vaccine RollOuts\n        HospitalRegistry[msg.sender]._numberOfVaccinesRollOut++;\n        vaccineCard ++;\n    }\n\n    modifier onlyOwner(){\n        require(healthMinistry == msg.sender,'Invalid Access!');\n        _;\n    }\n\n    modifier onlyRegisteredHospital(){\n        require(HospitalRegistry[msg.sender].registeredVacciner == true, 'Only Registered hospitals!');\n        _;\n    }\n\n}\n",
  "sourcePath": "/Users/yashmadhwal/Documents/Yash Madhwal/Ongoing (Reseach)/QR_Code_Project/contracts/MOSGOVCOVIDQR.sol",
  "compiler": {
    "name": "solc",
    "version": "0.8.6+commit.11564f7e.Emscripten.clang"
  },
  "schemaVersion": "3.4.2",
  "updatedAt": "2021-08-06T12:20:06.352Z",
  "networkType": "ethereum",
  "devdoc": {
    "kind": "dev",
    "methods": {},
    "version": 1
  },
  "userdoc": {
    "kind": "user",
    "methods": {},
    "version": 1
  }
}